:1000000033C0000044C0000042C0000040C00000F7
:100010003EC000003CC000003AC0000038C00000F4
:1000200036C0000034C0000032C0000030C0000004
:100030002EC000002CC000002AC0000028C0000014
:1000400026C0000024C0000022C0000020C0000024
:100050001EC000001CC000001AC0000018C0000034
:1000600016C0000014C0000011241FBECFEFD8E05E
:10007000DEBFCDBF11E0A0E0B1E0E0EEF0E002C0F5
:1000800005900D92A030B107D9F702D027C0B8CFA4
:1000900014D081E41CD082E41AD083E418D085E423
:1000A00016D080E090E008951092C50083E380931D
:1000B000C40088E08093C1000895F6DFE1ECF0E031
:1000C00080818061808386E08093C2000895909152
:1000D000C00095FFFCCF8093C6000895F894FFCF31
:00000001FF
