:1000000012C024C023C022C021C020C01FC01EC0F7
:100010001DC01CC01BC01AC019C018C017C016C014
:1000200015C014C013C011241FBECFE5D4E0DEBF3D
:10003000CDBF10E0A0E6B0E0EEE3F3E002C0059033
:100040000D92AA38B107D9F702D077C1D9CFCF9393
:10005000DF93CDB7DEB7A6970FB6F894DEBF0FBE1D
:10006000CDBFA2D080E690E0A8D088E593E0A0E0E4
:10007000B0E08C8B9D8BAE8BBF8B82EA9AE1A0E0C7
:10008000B0E0888F998FAA8FBB8F83ED8C8F84E02F
:100090008D8F1E8E1F8E18A219A21AA21BA281E29A
:1000A00090E09DA38CA38BE08EA319821A821B8201
:1000B0001C821D821E821F82188619861A861B8644
:1000C0001C861D861E861F86188A1A8A198A85E153
:1000D0008B8B89E690E071D063E1CE014496B4D079
:1000E00089E690E06AD089E790E0A0E0B0E08C8BF0
:1000F0009D8BAE8BBF8B8AE790E0A0E0B0E0888F4D
:10010000998FAA8FBB8F8BE78C8F1D8E1E8E1F8EB3
:1001100018A219A21AA21BA28CE891E09DA38CA39D
:1001200089E690E04AD063E1CE0101968DD089E660
:1001300090E043D0FE017496DE011196CE018796C1
:1001400021912D93E817F907D9F789819A815CD01D
:100150008C899D8959D08D819E8156D0888D998DAD
:1001600053D089859A8550D08C8D9D8D4DD08989AD
:100170009A894AD08CA19DA147D08B8990E044D028
:100180008EA190E041D080E090E0A6960FB6F89462
:10019000DEBF0FBECDBFDF91CF91089510BC83E3CA
:1001A00089B988E08AB90895F9DF549A86E880BD54
:1001B00008955D9BFECF8CB90895CF93DF93EC013A
:1001C0008991882311F0F5DFFBCFDF91CF9108955E
:1001D000CF93DF93CDB7DEB76E970FB6F894DEBF3F
:1001E0000FBECDBF4AE050E0BE016F5F7F4F62D0CF
:1001F000CE010196E2DF6E960FB6F894DEBF0FBE19
:10020000CDBFDF91CF910895E3DF86E890E0D5CFB1
:10021000CF93DF93CDB7DEB76E970FB6F894DEBFFE
:100220000FBECDBF40E150E0BE016F5F7F4F42D0B7
:10023000CE010196C2DF6E960FB6F894DEBF0FBEF8
:10024000CDBFDF91CF910895EF92FF920F931F934F
:10025000CF93DF93CDB7DEB729970FB6F894DEBF03
:100260000FBECDBF28E0FC01CE0101967C01DC0170
:1002700001900D922A95E1F78C01802F8E19861737
:1002800050F4F80181918F0190E06987C1DF80E22D
:1002900090DF6985F2CF86E890E029960FB6F89452
:1002A000DEBF0FBECDBFDF91CF911F910F91FF90A9
:1002B000EF9083CFFB019F01E8944230BCF04532C0
:1002C000ACF44A3029F497FB1EF4909581959F4F2A
:1002D000642F77271ED0805D8A330CF0895D81936F
:1002E000CB010097A9F716F45DE251931082C90182
:1002F00000C0DC01FC01672F71917723E1F7329791
:1003000004C07C916D9370836291AE17BF07C8F3F0
:100310000895AA1BBB1B51E107C0AA1FBB1FA6174C
:10032000B70710F0A61BB70B881F991F5A95A9F79E
:0E03300080959095BC01CD010895F894FFCF03
:10033E0073746172742E0D0A000D0A2A2A2A2A2A53
:10034E002A2A2A2A2A2A2A2A2A2A2A2A2A2A2A2AFF
:0A035E002A2A2A2A2A2A0D0A000082
:00000001FF
