:100000000C9434000C9451000C9451000C94510049
:100010000C9451000C9451000C9451000C9451001C
:100020000C9451000C9451000C9451000C9451000C
:100030000C9451000C9451000C9451000C945100FC
:100040000C94CD000C9451000C9451000C94510070
:100050000C9451000C9451000C9451000C945100DC
:100060000C9451000C94510011241FBECFEFD8E026
:10007000DEBFCDBF11E0A0E0B1E0E6EBF3E002C0EF
:1000800005900D92A230B107D9F721E0A2E0B1E0CE
:1000900001C01D92AB30B207E1F70E9453000C94EF
:1000A000D9010C9400008FEF84B915B885B585602F
:1000B00085BDEEE6F0E0808181608083789481E008
:1000C0008093090121E030E062E051E08091090174
:1000D000813079F415B88091090145B1F90102C068
:1000E000EE0FFF1F8A95E2F7CF01842785B91092A2
:1000F0000901809109018330A9F415B880910901A3
:1001000045B1F90102C0EE0FFF1F8A95E2F7CF015A
:10011000842785B98FE99FE00197F1F700C00000BF
:100120006093090180910901823079F415B88091BA
:10013000090145B1F90102C0EE0FFF1F8A95E2F7F0
:10014000CF01842785B9509309018091090184303A
:1001500079F415B88091090145B1F90102C0EE0F9B
:10016000FF1F8A95E2F7CF01842785B91092090114
:1001700080910901853009F0A9CF15B88091090156
:1001800045B1F90102C0EE0FFF1F8A95E2F7CF01DA
:10019000842785B91092090199CF1F920F920FB64B
:1001A0000F9211248F939F938091090181110AC0AE
:1001B0008091060190910701019690930701809329
:1001C000060109C080910401909105010196909368
:1001D0000501809304018091060190910701059724
:1001E00019F483E080930901809106019091070141
:1001F000069719F485E0809309018091060190919A
:100200000701079739F4109207011092060184E064
:10021000809309019F918F910F900FBE0F901F90B7
:1002200018951092C50088E08093C4008093C100A7
:1002300008950E941101E1ECF0E0808180618083EB
:1002400086E08093C2000895CF93DF93EC0128816C
:10025000222389F030E0E0ECF0E046EC50E09081C1
:1002600095FFFDCFDA012C933F5FDE01A30FB11D97
:100270002C912111F4CFDF91CF910895CF93DF938B
:10028000CDB7DEB76E970FB6F894DEBF0FBECDBF09
:1002900042E0BE016F5F7F4F90E00E94A401CE015B
:1002A00001960E94240180E091E00E9424016E9654
:1002B0000FB6F894DEBF0FBECDBFDF91CF9108958A
:1002C000CF93DF93CDB7DEB76E970FB6F894DEBF4E
:1002D0000FBECDBF4AE0BE016F5F7F4F90E00E942E
:1002E000A401CE0101960E94240180E091E00E94C9
:1002F00024016E960FB6F894DEBF0FBECDBFDF911E
:10030000CF910895CF93DF93CDB7DEB76E970FB639
:10031000F894DEBF0FBECDBF40E1BE016F5F7F4FDF
:1003200090E00E94A401CE0101960E94240180E089
:1003300091E00E9424016E960FB6F894DEBF0FBEC6
:10034000CDBFDF91CF910895BB274A3031F4992377
:1003500022F4BDE2909581959F4F0C94B001BB278C
:10036000FB015527AA27880F991FAA1FA41710F071
:10037000A41B83955051B9F7A05DAA3308F0A95D7D
:10038000A193009779F7B111B1931192CB010C941D
:10039000C901DC01FC01672F71917723E1F73297E6
:1003A00004C07C916D9370836291AE17BF07C8F350
:0603B0000895F894FFCF50
:0203B6000A003B
:00000001FF
